{
  "_format": "hh-sol-artifact-1",
  "contractName": "IftOpinion",
  "sourceName": "contracts/IftOpinion.sol",
  "abi": [
    {
      "inputs": [],
      "stateMutability": "payable",
      "type": "constructor"
    },
    {
      "anonymous": false,
      "inputs": [
        {
          "indexed": true,
          "internalType": "address",
          "name": "from",
          "type": "address"
        },
        {
          "indexed": false,
          "internalType": "uint256",
          "name": "timestamp",
          "type": "uint256"
        },
        {
          "indexed": false,
          "internalType": "string",
          "name": "message",
          "type": "string"
        }
      ],
      "name": "NewPost",
      "type": "event"
    },
    {
      "inputs": [],
      "name": "getAllPosts",
      "outputs": [
        {
          "components": [
            {
              "internalType": "address",
              "name": "poster",
              "type": "address"
            },
            {
              "internalType": "string",
              "name": "data",
              "type": "string"
            },
            {
              "internalType": "uint256",
              "name": "timestamp",
              "type": "uint256"
            }
          ],
          "internalType": "struct IftOpinion.Post[]",
          "name": "",
          "type": "tuple[]"
        }
      ],
      "stateMutability": "view",
      "type": "function"
    },
    {
      "inputs": [],
      "name": "getTotalPosts",
      "outputs": [
        {
          "internalType": "uint256",
          "name": "",
          "type": "uint256"
        }
      ],
      "stateMutability": "view",
      "type": "function"
    },
    {
      "inputs": [
        {
          "internalType": "address",
          "name": "",
          "type": "address"
        }
      ],
      "name": "lastPostTime",
      "outputs": [
        {
          "internalType": "uint256",
          "name": "",
          "type": "uint256"
        }
      ],
      "stateMutability": "view",
      "type": "function"
    },
    {
      "inputs": [
        {
          "internalType": "string",
          "name": "_data",
          "type": "string"
        }
      ],
      "name": "post",
      "outputs": [],
      "stateMutability": "nonpayable",
      "type": "function"
    }
  ],
  "bytecode": "0x6080604052606444426200001491906200002c565b62000020919062000093565b60018190555062000129565b6000620000398262000089565b9150620000468362000089565b9250827fffffffffffffffffffffffffffffffffffffffffffffffffffffffffffffffff038211156200007e576200007d620000cb565b5b828201905092915050565b6000819050919050565b6000620000a08262000089565b9150620000ad8362000089565b925082620000c057620000bf620000fa565b5b828206905092915050565b7f4e487b7100000000000000000000000000000000000000000000000000000000600052601160045260246000fd5b7f4e487b7100000000000000000000000000000000000000000000000000000000600052601260045260246000fd5b6110b580620001396000396000f3fe608060405234801561001057600080fd5b506004361061004c5760003560e01c806330561100146100515780635fe226b41461006f5780638ee93cf31461008d578063e82345fc146100a9575b600080fd5b6100596100d9565b6040516100669190610b9b565b60405180910390f35b61007761022a565b6040516100849190610c7d565b60405180910390f35b6100a760048036038101906100a29190610932565b610275565b005b6100c360048036038101906100be9190610909565b610670565b6040516100d09190610c7d565b60405180910390f35b60606002805480602002602001604051908101604052809291908181526020016000905b8282101561022157838290600052602060002090600302016040518060600160405290816000820160009054906101000a900473ffffffffffffffffffffffffffffffffffffffff1673ffffffffffffffffffffffffffffffffffffffff1673ffffffffffffffffffffffffffffffffffffffff16815260200160018201805461018690610e63565b80601f01602080910402602001604051908101604052809291908181526020018280546101b290610e63565b80156101ff5780601f106101d4576101008083540402835291602001916101ff565b820191906000526020600020905b8154815290600101906020018083116101e257829003601f168201915b50505050508152602001600282015481525050815260200190600101906100fd565b50505050905090565b600061026d6040518060400160405280601781526020017f5765206861766520256420746f74616c20706f73747321000000000000000000815250600054610688565b600054905090565b42603c600360003373ffffffffffffffffffffffffffffffffffffffff1673ffffffffffffffffffffffffffffffffffffffff168152602001908152602001600020546102c29190610d8f565b10610302576040517f08c379a00000000000000000000000000000000000000000000000000000000081526004016102f990610c1d565b60405180910390fd5b42600360003373ffffffffffffffffffffffffffffffffffffffff1673ffffffffffffffffffffffffffffffffffffffff1681526020019081526020016000208190555060016000808282546103589190610d8f565b9250508190555061039e6040518060400160405280600b81526020017f2573206120706f7374652100000000000000000000000000000000000000000081525033610724565b600260405180606001604052803373ffffffffffffffffffffffffffffffffffffffff16815260200183815260200142815250908060018154018082558091505060019003906000526020600020906003020160009091909190915060008201518160000160006101000a81548173ffffffffffffffffffffffffffffffffffffffff021916908373ffffffffffffffffffffffffffffffffffffffff160217905550602082015181600101908051906020019061045d9291906107e9565b506040820151816002015550506064600154424461047b9190610d8f565b6104859190610d8f565b61048f9190610ec6565b6001819055506104d66040518060400160405280601781526020017f52616e646f6d20736565642067656e657265723a202564000000000000000000815250600154610688565b6032600154101561061d576105206040518060400160405280600c81526020017f25732061206761676e657221000000000000000000000000000000000000000081525033610724565b6000655af3107a400090504781111561056e576040517f08c379a000000000000000000000000000000000000000000000000000000000815260040161056590610c5d565b60405180910390fd5b60003373ffffffffffffffffffffffffffffffffffffffff168260405161059490610b86565b60006040518083038185875af1925050503d80600081146105d1576040519150601f19603f3d011682016040523d82523d6000602084013e6105d6565b606091505b505090508061061a576040517f08c379a000000000000000000000000000000000000000000000000000000000815260040161061190610c3d565b60405180910390fd5b50505b3373ffffffffffffffffffffffffffffffffffffffff167fd8c86c7877c3f1f8a40af6cf64a11fe867af887f2a1ad31aac849e36730425b04283604051610665929190610c98565b60405180910390a250565b60036020528060005260406000206000915090505481565b610720828260405160240161069e929190610bed565b6040516020818303038152906040527f9710a9d0000000000000000000000000000000000000000000000000000000007bffffffffffffffffffffffffffffffffffffffffffffffffffffffff19166020820180517bffffffffffffffffffffffffffffffffffffffffffffffffffffffff83818316178352505050506107c0565b5050565b6107bc828260405160240161073a929190610bbd565b6040516020818303038152906040527f319af333000000000000000000000000000000000000000000000000000000007bffffffffffffffffffffffffffffffffffffffffffffffffffffffff19166020820180517bffffffffffffffffffffffffffffffffffffffffffffffffffffffff83818316178352505050506107c0565b5050565b60008151905060006a636f6e736f6c652e6c6f679050602083016000808483855afa5050505050565b8280546107f590610e63565b90600052602060002090601f016020900481019282610817576000855561085e565b82601f1061083057805160ff191683800117855561085e565b8280016001018555821561085e579182015b8281111561085d578251825591602001919060010190610842565b5b50905061086b919061086f565b5090565b5b80821115610888576000816000905550600101610870565b5090565b600061089f61089a84610ced565b610cc8565b9050828152602081018484840111156108b757600080fd5b6108c2848285610e21565b509392505050565b6000813590506108d981611068565b92915050565b600082601f8301126108f057600080fd5b813561090084826020860161088c565b91505092915050565b60006020828403121561091b57600080fd5b6000610929848285016108ca565b91505092915050565b60006020828403121561094457600080fd5b600082013567ffffffffffffffff81111561095e57600080fd5b61096a848285016108df565b91505092915050565b600061097f8383610b18565b905092915050565b61099081610de5565b82525050565b61099f81610de5565b82525050565b60006109b082610d2e565b6109ba8185610d51565b9350836020820285016109cc85610d1e565b8060005b85811015610a0857848403895281516109e98582610973565b94506109f483610d44565b925060208a019950506001810190506109d0565b50829750879550505050505092915050565b6000610a2582610d39565b610a2f8185610d6d565b9350610a3f818560208601610e30565b610a4881610fb3565b840191505092915050565b6000610a5e82610d39565b610a688185610d7e565b9350610a78818560208601610e30565b610a8181610fb3565b840191505092915050565b6000610a99600f83610d7e565b9150610aa482610fc4565b602082019050919050565b6000610abc602683610d7e565b9150610ac782610fed565b604082019050919050565b6000610adf600083610d62565b9150610aea8261103c565b600082019050919050565b6000610b02601983610d7e565b9150610b0d8261103f565b602082019050919050565b6000606083016000830151610b306000860182610987565b5060208301518482036020860152610b488282610a1a565b9150506040830151610b5d6040860182610b68565b508091505092915050565b610b7181610e17565b82525050565b610b8081610e17565b82525050565b6000610b9182610ad2565b9150819050919050565b60006020820190508181036000830152610bb581846109a5565b905092915050565b60006040820190508181036000830152610bd78185610a53565b9050610be66020830184610996565b9392505050565b60006040820190508181036000830152610c078185610a53565b9050610c166020830184610b77565b9392505050565b60006020820190508181036000830152610c3681610a8c565b9050919050565b60006020820190508181036000830152610c5681610aaf565b9050919050565b60006020820190508181036000830152610c7681610af5565b9050919050565b6000602082019050610c926000830184610b77565b92915050565b6000604082019050610cad6000830185610b77565b8181036020830152610cbf8184610a53565b90509392505050565b6000610cd2610ce3565b9050610cde8282610e95565b919050565b6000604051905090565b600067ffffffffffffffff821115610d0857610d07610f84565b5b610d1182610fb3565b9050602081019050919050565b6000819050602082019050919050565b600081519050919050565b600081519050919050565b6000602082019050919050565b600082825260208201905092915050565b600081905092915050565b600082825260208201905092915050565b600082825260208201905092915050565b6000610d9a82610e17565b9150610da583610e17565b9250827fffffffffffffffffffffffffffffffffffffffffffffffffffffffffffffffff03821115610dda57610dd9610ef7565b5b828201905092915050565b6000610df082610df7565b9050919050565b600073ffffffffffffffffffffffffffffffffffffffff82169050919050565b6000819050919050565b82818337600083830152505050565b60005b83811015610e4e578082015181840152602081019050610e33565b83811115610e5d576000848401525b50505050565b60006002820490506001821680610e7b57607f821691505b60208210811415610e8f57610e8e610f55565b5b50919050565b610e9e82610fb3565b810181811067ffffffffffffffff82111715610ebd57610ebc610f84565b5b80604052505050565b6000610ed182610e17565b9150610edc83610e17565b925082610eec57610eeb610f26565b5b828206905092915050565b7f4e487b7100000000000000000000000000000000000000000000000000000000600052601160045260246000fd5b7f4e487b7100000000000000000000000000000000000000000000000000000000600052601260045260246000fd5b7f4e487b7100000000000000000000000000000000000000000000000000000000600052602260045260246000fd5b7f4e487b7100000000000000000000000000000000000000000000000000000000600052604160045260246000fd5b6000601f19601f8301169050919050565b7f617474656e642031206d696e7574650000000000000000000000000000000000600082015250565b7f456e766f6965206465207469702064657075697320636f6e747261637420656360008201527f686f7565722e0000000000000000000000000000000000000000000000000000602082015250565b50565b7f536f6c646520636f6e7472617420696e737566666973616e7400000000000000600082015250565b61107181610de5565b811461107c57600080fd5b5056fea26469706673582212206e1d2a8da820e7574ad3752c61407d93b8d81b5fade4f417bf2e999430fc2e5064736f6c63430008040033",
  "linkReferences": {},
  "deployedLinkReferences": {}
}